{"abi":[{"type":"function","name":"ProposalAddr","inputs":[],"outputs":[{"name":"","type":"address","internalType":"address"}],"stateMutability":"view"},{"type":"function","name":"PunishContractAddr","inputs":[],"outputs":[{"name":"","type":"address","internalType":"address"}],"stateMutability":"view"},{"type":"function","name":"ValidatorContractAddr","inputs":[],"outputs":[{"name":"","type":"address","internalType":"address"}],"stateMutability":"view"},{"type":"function","name":"createOrEditValidator","inputs":[{"name":"feeAddr","type":"address","internalType":"address payable"},{"name":"moniker","type":"string","internalType":"string"},{"name":"identity","type":"string","internalType":"string"},{"name":"website","type":"string","internalType":"string"},{"name":"email","type":"string","internalType":"string"},{"name":"details","type":"string","internalType":"string"}],"outputs":[{"name":"","type":"bool","internalType":"bool"}],"stateMutability":"nonpayable"},{"type":"function","name":"currentValidatorSet","inputs":[{"name":"","type":"uint256","internalType":"uint256"}],"outputs":[{"name":"","type":"address","internalType":"address"}],"stateMutability":"view"},{"type":"function","name":"distributeBlockReward","inputs":[],"outputs":[],"stateMutability":"payable"},{"type":"function","name":"getActiveValidators","inputs":[],"outputs":[{"name":"","type":"address[]","internalType":"address[]"}],"stateMutability":"view"},{"type":"function","name":"getTopValidators","inputs":[],"outputs":[{"name":"","type":"address[]","internalType":"address[]"}],"stateMutability":"view"},{"type":"function","name":"getValidatorDescription","inputs":[{"name":"val","type":"address","internalType":"address"}],"outputs":[{"name":"","type":"string","internalType":"string"},{"name":"","type":"string","internalType":"string"},{"name":"","type":"string","internalType":"string"},{"name":"","type":"string","internalType":"string"},{"name":"","type":"string","internalType":"string"}],"stateMutability":"view"},{"type":"function","name":"getValidatorInfo","inputs":[{"name":"val","type":"address","internalType":"address"}],"outputs":[{"name":"","type":"address","internalType":"address payable"},{"name":"","type":"uint8","internalType":"enum Validators.Status"},{"name":"","type":"uint256","internalType":"uint256"},{"name":"","type":"uint256","internalType":"uint256"},{"name":"","type":"uint256","internalType":"uint256"}],"stateMutability":"view"},{"type":"function","name":"highestValidatorsSet","inputs":[{"name":"","type":"uint256","internalType":"uint256"}],"outputs":[{"name":"","type":"address","internalType":"address"}],"stateMutability":"view"},{"type":"function","name":"initialize","inputs":[{"name":"vals","type":"address[]","internalType":"address[]"}],"outputs":[],"stateMutability":"nonpayable"},{"type":"function","name":"initialized","inputs":[],"outputs":[{"name":"","type":"bool","internalType":"bool"}],"stateMutability":"view"},{"type":"function","name":"isActiveValidator","inputs":[{"name":"who","type":"address","internalType":"address"}],"outputs":[{"name":"","type":"bool","internalType":"bool"}],"stateMutability":"view"},{"type":"function","name":"isTopValidator","inputs":[{"name":"who","type":"address","internalType":"address"}],"outputs":[{"name":"","type":"bool","internalType":"bool"}],"stateMutability":"view"},{"type":"function","name":"removeValidator","inputs":[{"name":"val","type":"address","internalType":"address"}],"outputs":[],"stateMutability":"nonpayable"},{"type":"function","name":"removeValidatorIncoming","inputs":[{"name":"val","type":"address","internalType":"address"}],"outputs":[],"stateMutability":"nonpayable"},{"type":"function","name":"totalJailedHB","inputs":[],"outputs":[{"name":"","type":"uint256","internalType":"uint256"}],"stateMutability":"view"},{"type":"function","name":"tryActive","inputs":[{"name":"validator","type":"address","internalType":"address"}],"outputs":[{"name":"","type":"bool","internalType":"bool"}],"stateMutability":"nonpayable"},{"type":"function","name":"tryRemoveValidator","inputs":[{"name":"val","type":"address","internalType":"address"}],"outputs":[],"stateMutability":"nonpayable"},{"type":"function","name":"updateActiveValidatorSet","inputs":[{"name":"newSet","type":"address[]","internalType":"address[]"},{"name":"epoch","type":"uint256","internalType":"uint256"}],"outputs":[],"stateMutability":"nonpayable"},{"type":"function","name":"validateDescription","inputs":[{"name":"moniker","type":"string","internalType":"string"},{"name":"identity","type":"string","internalType":"string"},{"name":"website","type":"string","internalType":"string"},{"name":"email","type":"string","internalType":"string"},{"name":"details","type":"string","internalType":"string"}],"outputs":[{"name":"","type":"bool","internalType":"bool"}],"stateMutability":"pure"},{"type":"function","name":"withdrawProfits","inputs":[{"name":"validator","type":"address","internalType":"address"}],"outputs":[{"name":"","type":"bool","internalType":"bool"}],"stateMutability":"nonpayable"},{"type":"event","name":"LogActive","inputs":[{"name":"val","type":"address","indexed":true,"internalType":"address"},{"name":"time","type":"uint256","indexed":false,"internalType":"uint256"}],"anonymous":false},{"type":"event","name":"LogAddToTopValidators","inputs":[{"name":"val","type":"address","indexed":true,"internalType":"address"},{"name":"time","type":"uint256","indexed":false,"internalType":"uint256"}],"anonymous":false},{"type":"event","name":"LogDistributeBlockReward","inputs":[{"name":"coinbase","type":"address","indexed":true,"internalType":"address"},{"name":"blockReward","type":"uint256","indexed":false,"internalType":"uint256"},{"name":"time","type":"uint256","indexed":false,"internalType":"uint256"}],"anonymous":false},{"type":"event","name":"LogEditValidator","inputs":[{"name":"val","type":"address","indexed":true,"internalType":"address"},{"name":"fee","type":"address","indexed":true,"internalType":"address"},{"name":"time","type":"uint256","indexed":false,"internalType":"uint256"}],"anonymous":false},{"type":"event","name":"LogRemoveFromTopValidators","inputs":[{"name":"val","type":"address","indexed":true,"internalType":"address"},{"name":"time","type":"uint256","indexed":false,"internalType":"uint256"}],"anonymous":false},{"type":"event","name":"LogRemoveValidator","inputs":[{"name":"val","type":"address","indexed":true,"internalType":"address"},{"name":"hb","type":"uint256","indexed":false,"internalType":"uint256"},{"name":"time","type":"uint256","indexed":false,"internalType":"uint256"}],"anonymous":false},{"type":"event","name":"LogRemoveValidatorIncoming","inputs":[{"name":"val","type":"address","indexed":true,"internalType":"address"},{"name":"hb","type":"uint256","indexed":false,"internalType":"uint256"},{"name":"time","type":"uint256","indexed":false,"internalType":"uint256"}],"anonymous":false},{"type":"event","name":"LogUpdateValidator","inputs":[{"name":"newSet","type":"address[]","indexed":false,"internalType":"address[]"}],"anonymous":false},{"type":"event","name":"LogWithdrawProfits","inputs":[{"name":"val","type":"address","indexed":true,"internalType":"address"},{"name":"fee","type":"address","indexed":true,"internalType":"address"},{"name":"hb","type":"uint256","indexed":false,"internalType":"uint256"},{"name":"time","type":"uint256","indexed":false,"internalType":"uint256"}],"anonymous":false}],"bytecode":{"object":"0x608060405234801561000f575f80fd5b506131638061001d5f395ff3fe60806040526004361061013b575f3560e01c80636969a25c116100b3578063a224cee71161006d578063a224cee71461036f578063a406fcb71461038e578063a43569b3146103ad578063afeea115146103dd578063b6c88519146103f1578063d6c0edad14610410575f80fd5b80636969a25c146102a25780638a11d7c9146102c157806398e3b626146102f15780639de7025814610310578063a079886214610331578063a1ff465514610350575f80fd5b806340550a1c1161010457806340550a1c146101f057806340a141ff1461020f5780634b3d500b146102305780635dd095901461024f5780636233be5d1461026e5780636846992a14610283575f80fd5b8062362a771461013f5780631303f7cf14610173578063158ef93e146101965780631b5e358c146101ae5780633a061bd3146101db575b5f80fd5b34801561014a575f80fd5b5061015e610159366004612952565b610418565b60405190151581526020015b60405180910390f35b34801561017e575f80fd5b5061018860045481565b60405190815260200161016a565b3480156101a1575f80fd5b505f5461015e9060ff1681565b3480156101b9575f80fd5b506101c361f00181565b6040516001600160a01b03909116815260200161016a565b3480156101e6575f80fd5b506101c361f00081565b3480156101fb575f80fd5b5061015e61020a366004612952565b61075d565b34801561021a575f80fd5b5061022e610229366004612952565b6107c3565b005b34801561023b575f80fd5b506101c361024a36600461296d565b610817565b34801561025a575f80fd5b5061022e610269366004612952565b61083f565b348015610279575f80fd5b506101c361f00281565b34801561028e575f80fd5b5061022e61029d3660046129c9565b610890565b3480156102ad575f80fd5b506101c36102bc36600461296d565b610a5e565b3480156102cc575f80fd5b506102e06102db366004612952565b610a6d565b60405161016a959493929190612a90565b3480156102fc575f80fd5b5061015e61030b366004612952565b610e08565b34801561031b575f80fd5b50610324610e66565b60405161016a9190612ade565b34801561033c575f80fd5b5061015e61034b366004612952565b610ec6565b34801561035b575f80fd5b5061022e61036a366004612952565b6110c4565b34801561037a575f80fd5b5061022e610389366004612b2a565b61110e565b348015610399575f80fd5b5061015e6103a8366004612be9565b6114d2565b3480156103b8575f80fd5b506103cc6103c7366004612952565b6119a0565b60405161016a959493929190612d27565b3480156103e8575f80fd5b50610324611d43565b3480156103fc575f80fd5b5061015e61040b366004612dff565b611da1565b61022e611f2c565b5f33816001600160a01b0384165f90815260016020526040902054600160a01b900460ff16600281111561044e5761044e612a7c565b036104965760405162461bcd60e51b815260206004820152601360248201527215985b1a59185d1bdc881b9bdd08195e1a5cdd606a1b60448201526064015b60405180910390fd5b6001600160a01b038381165f908152600160205260409020548116908216146105185760405162461bcd60e51b815260206004820152602e60248201527f596f7520617265206e6f742074686520666565207265636569766572206f662060448201526d3a3434b9903b30b634b230ba37b960911b606482015260840161048d565b600554604080516394522b6d60e01b8152905143926001600160a01b0316916394522b6d9160048083019260209291908290030181865afa15801561055f573d5f803e3d5ffd5b505050506040513d601f19601f820116820180604052508101906105839190612ec8565b6001600160a01b0385165f908152600160205260409020600801546105a89190612ef3565b11156106425760405162461bcd60e51b815260206004820152605c60248201527f596f75206d757374207761697420656e6f75676820626c6f636b7320746f207760448201527f6974686472617720796f75722070726f66697473206166746572206c6174657360648201527f74207769746864726177206f6620746869732076616c696461746f7200000000608482015260a40161048d565b6001600160a01b0383165f90815260016020526040902060060154806106aa5760405162461bcd60e51b815260206004820152601a60248201527f596f7520646f6e2774206861766520616e792070726f66697473000000000000604482015260640161048d565b6001600160a01b0384165f908152600160205260408120600681019190915543600890910155801561070b576040516001600160a01b0383169082156108fc029083905f818181858888f19350505050158015610709573d5f803e3d5ffd5b505b604080518281524260208201526001600160a01b0380851692908716917f51a69b4502f660774c9339825c7b5adbf0b8622289134647e29728ec5d9b3bb9910160405180910390a35060019392505050565b5f805b6002548110156107bb57826001600160a01b03166002828154811061078757610787612f06565b5f918252602090912001546001600160a01b0316036107a95750600192915050565b806107b381612f1a565b915050610760565b505f92915050565b3361f0011461080b5760405162461bcd60e51b815260206004820152601460248201527350756e69736820636f6e7472616374206f6e6c7960601b604482015260640161048d565b6108148161209d565b50565b60038181548110610826575f80fd5b5f918252602090912001546001600160a01b0316905081565b3361f001146108875760405162461bcd60e51b815260206004820152601460248201527350756e69736820636f6e7472616374206f6e6c7960601b604482015260640161048d565b6108148161219a565b3341146108cc5760405162461bcd60e51b815260206004820152600a6024820152694d696e6572206f6e6c7960b01b604482015260640161048d565b435f9081526007602090815260408083206001845290915290205460ff16156109375760405162461bcd60e51b815260206004820152601a60248201527f56616c696461746f727320616c72656164792075706461746564000000000000604482015260640161048d565b5f5460ff166109585760405162461bcd60e51b815260040161048d90612f32565b806109638143612f6c565b156109a35760405162461bcd60e51b815260206004820152601060248201526f426c6f636b2065706f6368206f6e6c7960801b604482015260640161048d565b435f90815260076020908152604080832060018085529252909120805460ff191690911790558251610a0e5760405162461bcd60e51b815260206004820152601460248201527356616c696461746f722073657420656d7074792160601b604482015260640161048d565b8251610a219060029060208601906128c7565b507feacea8f3c22f06c0b18306bdb04d0a967255129e8ce0094debb0a0ff89d006b583604051610a519190612ade565b60405180910390a1505050565b60028181548110610826575f80fd5b6001600160a01b038181165f908152600160209081526040808320815160c08101909252805494851682529293849384938493849384939192830190600160a01b900460ff166002811115610ac457610ac4612a7c565b6002811115610ad557610ad5612a7c565b8152602001600182016040518060a00160405290815f82018054610af890612f7f565b80601f0160208091040260200160405190810160405280929190818152602001828054610b2490612f7f565b8015610b6f5780601f10610b4657610100808354040283529160200191610b6f565b820191905f5260205f20905b815481529060010190602001808311610b5257829003601f168201915b50505050508152602001600182018054610b8890612f7f565b80601f0160208091040260200160405190810160405280929190818152602001828054610bb490612f7f565b8015610bff5780601f10610bd657610100808354040283529160200191610bff565b820191905f5260205f20905b815481529060010190602001808311610be257829003601f168201915b50505050508152602001600282018054610c1890612f7f565b80601f0160208091040260200160405190810160405280929190818152602001828054610c4490612f7f565b8015610c8f5780601f10610c6657610100808354040283529160200191610c8f565b820191905f5260205f20905b815481529060010190602001808311610c7257829003601f168201915b50505050508152602001600382018054610ca890612f7f565b80601f0160208091040260200160405190810160405280929190818152602001828054610cd490612f7f565b8015610d1f5780601f10610cf657610100808354040283529160200191610d1f565b820191905f5260205f20905b815481529060010190602001808311610d0257829003601f168201915b50505050508152602001600482018054610d3890612f7f565b80601f0160208091040260200160405190810160405280929190818152602001828054610d6490612f7f565b8015610daf5780601f10610d8657610100808354040283529160200191610daf565b820191905f5260205f20905b815481529060010190602001808311610d9257829003601f168201915b505050505081525050815260200160068201548152602001600782015481526020016008820154815250509050805f01518160200151826060015183608001518460a00151955095509550955095505091939590929450565b5f805b6003548110156107bb57826001600160a01b031660038281548110610e3257610e32612f06565b5f918252602090912001546001600160a01b031603610e545750600192915050565b80610e5e81612f1a565b915050610e0b565b60606002805480602002602001604051908101604052809291908181526020018280548015610ebc57602002820191905f5260205f20905b81546001600160a01b03168152600190910190602001808311610e9e575b5050505050905090565b5f3361f00214610f115760405162461bcd60e51b815260206004820152601660248201527550726f706f73616c20636f6e7472616374206f6e6c7960501b604482015260640161048d565b5f5460ff16610f325760405162461bcd60e51b815260040161048d90612f32565b60016001600160a01b0383165f90815260016020526040902054600160a01b900460ff166002811115610f6757610f67612a7c565b03610f7457506001919050565b610f7d826122ab565b60026001600160a01b0383165f90815260016020526040902054600160a01b900460ff166002811115610fb257610fb2612a7c565b0361105f576006546040516363e1d45160e01b81526001600160a01b038481166004830152909116906363e1d451906024016020604051808303815f875af1158015611000573d5f803e3d5ffd5b505050506040513d601f19601f820116820180604052508101906110249190612fb7565b61105f5760405162461bcd60e51b815260206004820152600c60248201526b18db19585b8819985a5b195960a21b604482015260640161048d565b6001600160a01b0382165f81815260016020908152604091829020805460ff60a01b1916600160a01b17905590514281527f8bef9a500ef702fa4b7c82318f7b750176b75d33c8897ad10a35e5e5e4161362910160405180910390a25060015b919050565b3361f0021461080b5760405162461bcd60e51b815260206004820152601660248201527550726f706f73616c20636f6e7472616374206f6e6c7960501b604482015260640161048d565b5f5460ff16156111565760405162461bcd60e51b8152602060048201526013602482015272105b1c9958591e481a5b9a5d1a585b1a5e9959606a1b604482015260640161048d565b600580546001600160a01b031990811661f002179091556006805490911661f0011790555f5b818110156114c1575f83838381811061119757611197612f06565b90506020020160208101906111ac9190612952565b6001600160a01b0316036112025760405162461bcd60e51b815260206004820152601960248201527f496e76616c69642076616c696461746f72206164647265737300000000000000604482015260640161048d565b61122c83838381811061121757611217612f06565b905060200201602081019061020a9190612952565b61128b57600283838381811061124457611244612f06565b90506020020160208101906112599190612952565b81546001810183555f928352602090922090910180546001600160a01b0319166001600160a01b039092169190911790555b6112b58383838181106112a0576112a0612f06565b905060200201602081019061030b9190612952565b6113145760038383838181106112cd576112cd612f06565b90506020020160208101906112e29190612952565b81546001810183555f928352602090922090910180546001600160a01b0319166001600160a01b039092169190911790555b5f60018185858581811061132a5761132a612f06565b905060200201602081019061133f9190612952565b6001600160a01b03908116825260208201929092526040015f205416036113e25782828281811061137257611372612f06565b90506020020160208101906113879190612952565b60015f85858581811061139c5761139c612f06565b90506020020160208101906113b19190612952565b6001600160a01b03908116825260208201929092526040015f2080546001600160a01b031916929091169190911790555b5f60015f8585858181106113f8576113f8612f06565b905060200201602081019061140d9190612952565b6001600160a01b0316815260208101919091526040015f2054600160a01b900460ff16600281111561144157611441612a7c565b036114af576001805f85858581811061145c5761145c612f06565b90506020020160208101906114719190612952565b6001600160a01b0316815260208101919091526040015f20805460ff60a01b1916600160a01b8360028111156114a9576114a9612a7c565b02179055505b806114b981612f1a565b91505061117c565b50505f805460ff1916600117905550565b5f805460ff166114f45760405162461bcd60e51b815260040161048d90612f32565b6001600160a01b038c166115405760405162461bcd60e51b8152602060048201526013602482015272496e76616c696420666565206164647265737360681b604482015260640161048d565b61164a8b8b8080601f0160208091040260200160405190810160405280939291908181526020018383808284375f9201919091525050604080516020601f8f018190048102820181019092528d815292508d91508c90819084018382808284375f9201919091525050604080516020601f8e018190048102820181019092528c815292508c91508b90819084018382808284375f9201919091525050604080516020601f8d018190048102820181019092528b815292508b91508a90819084018382808284375f9201919091525050604080516020601f8c018190048102820181019092528a815292508a91508990819084018382808284375f92019190915250611da192505050565b61168c5760405162461bcd60e51b815260206004820152601360248201527224b73b30b634b2103232b9b1b934b83a34b7b760691b604482015260640161048d565b60055460405163416259d960e11b81523360048201819052916001600160a01b0316906382c4b3b290602401602060405180830381865afa1580156116d3573d5f803e3d5ffd5b505050506040513d601f19601f820116820180604052508101906116f79190612fb7565b6117435760405162461bcd60e51b815260206004820152601c60248201527f596f75206d75737420626520617574686f72697a656420666972737400000000604482015260640161048d565b6001600160a01b038181165f908152600160205260409020548116908e1614611794576001600160a01b038181165f90815260016020526040902080546001600160a01b031916918f169190911790555b6040518060a001604052808d8d8080601f0160208091040260200160405190810160405280939291908181526020018383808284375f92019190915250505090825250604080516020601f8e018190048102820181019092528c815291810191908d908d90819084018382808284375f92019190915250505090825250604080516020601f8c018190048102820181019092528a815291810191908b908b90819084018382808284375f92019190915250505090825250604080516020601f8a01819004810282018101909252888152918101919089908990819084018382808284375f92019190915250505090825250604080516020601f8801819004810282018101909252868152918101919087908790819084018382808284375f9201829052509390945250506001600160a01b038416815260016020819052604090912083519101915081906118e89082613020565b50602082015160018201906118fd9082613020565b50604082015160028201906119129082613020565b50606082015160038201906119279082613020565b506080820151600482019061193c9082613020565b509050508c6001600160a01b0316816001600160a01b03167fb8421f65501371f54d58de1937ff1e1ccdb76423ef6f84acea1814a0f6362ca04260405161198591815260200190565b60405180910390a35060019c9b505050505050505050505050565b6001600160a01b038181165f908152600160209081526040808320815160c081019092528054948516825260609485948594859485949293909291830190600160a01b900460ff1660028111156119f9576119f9612a7c565b6002811115611a0a57611a0a612a7c565b8152602001600182016040518060a00160405290815f82018054611a2d90612f7f565b80601f0160208091040260200160405190810160405280929190818152602001828054611a5990612f7f565b8015611aa45780601f10611a7b57610100808354040283529160200191611aa4565b820191905f5260205f20905b815481529060010190602001808311611a8757829003601f168201915b50505050508152602001600182018054611abd90612f7f565b80601f0160208091040260200160405190810160405280929190818152602001828054611ae990612f7f565b8015611b345780601f10611b0b57610100808354040283529160200191611b34565b820191905f5260205f20905b815481529060010190602001808311611b1757829003601f168201915b50505050508152602001600282018054611b4d90612f7f565b80601f0160208091040260200160405190810160405280929190818152602001828054611b7990612f7f565b8015611bc45780601f10611b9b57610100808354040283529160200191611bc4565b820191905f5260205f20905b815481529060010190602001808311611ba757829003601f168201915b50505050508152602001600382018054611bdd90612f7f565b80601f0160208091040260200160405190810160405280929190818152602001828054611c0990612f7f565b8015611c545780601f10611c2b57610100808354040283529160200191611c54565b820191905f5260205f20905b815481529060010190602001808311611c3757829003601f168201915b50505050508152602001600482018054611c6d90612f7f565b80601f0160208091040260200160405190810160405280929190818152602001828054611c9990612f7f565b8015611ce45780601f10611cbb57610100808354040283529160200191611ce4565b820191905f5260205f20905b815481529060010190602001808311611cc757829003601f168201915b50505091909252505050815260068201546020808301919091526007830154604080840191909152600890930154606092830152928201518051938101519281015191810151608090910151939b929a50909850965090945092505050565b60606003805480602002602001604051908101604052809291908181526020018280548015610ebc57602002820191905f5260205f209081546001600160a01b03168152600190910190602001808311610e9e575050505050905090565b5f604686511115611ded5760405162461bcd60e51b8152602060048201526016602482015275092dcecc2d8d2c840dadedcd2d6cae440d8cadccee8d60531b604482015260640161048d565b610bb885511115611e405760405162461bcd60e51b815260206004820152601760248201527f496e76616c6964206964656e74697479206c656e677468000000000000000000604482015260640161048d565b608c84511115611e8b5760405162461bcd60e51b8152602060048201526016602482015275092dcecc2d8d2c840eecac4e6d2e8ca40d8cadccee8d60531b604482015260640161048d565b608c83511115611ed45760405162461bcd60e51b8152602060048201526014602482015273092dcecc2d8d2c840cadac2d2d840d8cadccee8d60631b604482015260640161048d565b61011882511115611f205760405162461bcd60e51b8152602060048201526016602482015275092dcecc2d8d2c840c8cae8c2d2d8e640d8cadccee8d60531b604482015260640161048d565b50600195945050505050565b334114611f685760405162461bcd60e51b815260206004820152600a6024820152694d696e6572206f6e6c7960b01b604482015260640161048d565b435f90815260076020908152604080832083805290915290205460ff1615611fd25760405162461bcd60e51b815260206004820152601960248201527f426c6f636b20697320616c726561647920726577617264656400000000000000604482015260640161048d565b5f5460ff16611ff35760405162461bcd60e51b815260040161048d90612f32565b435f9081526007602090815260408083208380528252808320805460ff1916600190811790915533808552925282205490913491600160a01b900460ff16600281111561204257612042612a7c565b0361204b575050565b612055815f612387565b604080518281524260208201526001600160a01b038416917f7dc4e5df59513708dca355b8706273a5df7b810a4cec8019f2a4b9bb166a1a0491015b60405180910390a25050565b6001600160a01b0381165f9081526001602052604090206006810154815460ff60a01b1916600160a11b179091556120d48261219a565b60035460011015612196576120e88261251c565b6005546040516315ea278160e01b81526001600160a01b038481166004830152909116906315ea2781906024016020604051808303815f875af1158015612131573d5f803e3d5ffd5b505050506040513d601f19601f820116820180604052508101906121559190612fb7565b50604080518281524260208201526001600160a01b038416917fa26de7ab324eac08c596549f421e5c8741213d237d2e9a2c9c0ebde0a7a849fe9101612091565b5050565b5f6001600160a01b0382165f90815260016020526040902054600160a01b900460ff1660028111156121ce576121ce612a7c565b14806121dd5750600254600110155b156121e55750565b6001600160a01b0381165f90815260016020526040902060060154801561226b576122108183612387565b60045461221d9082612673565b6004556001600160a01b0382165f908152600160205260409020600701546122459082612673565b6001600160a01b0383165f90815260016020526040812060078101929092556006909101555b604080518281524260208201526001600160a01b038416917fe294e9d73f8eee23e21b2e1567960625a6b5d339cb127b55d0d09473a99512359101612091565b5f5b60035481101561230357816001600160a01b0316600382815481106122d4576122d4612f06565b5f918252602090912001546001600160a01b0316036122f1575050565b806122fb81612f1a565b9150506122ad565b50600380546001810182555f919091527fc2575a0e9e593c00f959f8c92f12db2869c3395a3b0502d05e2516446f71f85b0180546001600160a01b0319166001600160a01b0383169081179091556040514281527f1e3310ad6891b30e03874ec3d1422a6386c5da63d9faf595f5d99eeaf443b99a9060200160405180910390a250565b815f03612392575050565b5f61239c826126da565b9050805f036123aa57505050565b5f80806123b78685612794565b90506123cd6123c682866127ee565b879061286c565b92505f5b6002548110156124b6575f600282815481106123ef576123ef612f06565b5f918252602090912001546001600160a01b0316905060026001600160a01b0382165f90815260016020526040902054600160a01b900460ff16600281111561243a5761243a612a7c565b1415801561245a5750866001600160a01b0316816001600160a01b031614155b156124a3576001600160a01b0381165f908152600160205260409020600601546124849084612673565b6001600160a01b0382165f908152600160205260409020600601559250825b50806124ae81612f1a565b9150506123d1565b505f831180156124ce57506001600160a01b03821615155b15612514576001600160a01b0382165f908152600160205260409020600601546124f89084612673565b6001600160a01b0383165f908152600160205260409020600601555b505050505050565b5f5b6003548110801561253157506003546001105b15612196576003818154811061254957612549612f06565b5f918252602090912001546001600160a01b039081169083160361266157600354612576906001906130dc565b81146125f3576003805461258c906001906130dc565b8154811061259c5761259c612f06565b5f91825260209091200154600380546001600160a01b0390921691839081106125c7576125c7612f06565b905f5260205f20015f6101000a8154816001600160a01b0302191690836001600160a01b031602179055505b6003805480612604576126046130ef565b5f8281526020902081015f1990810180546001600160a01b03191690550190556040516001600160a01b038316907f7521e44559c870c316e84e60bc4785d9c034a8ab1d6acdce8134ac03f946c6ed906120919042815260200190565b8061266b81612f1a565b91505061251e565b5f8061267f8385612ef3565b9050838110156126d15760405162461bcd60e51b815260206004820152601b60248201527f536166654d6174683a206164646974696f6e206f766572666c6f770000000000604482015260640161048d565b90505b92915050565b5f805f5b60025481101561278d575f600282815481106126fc576126fc612f06565b5f918252602090912001546001600160a01b0316905060026001600160a01b0382165f90815260016020526040902054600160a01b900460ff16600281111561274757612747612a7c565b141580156127675750846001600160a01b0316816001600160a01b031614155b1561277a578261277681612f1a565b9350505b508061278581612f1a565b9150506126de565b5092915050565b5f8082116127e45760405162461bcd60e51b815260206004820152601a60248201527f536166654d6174683a206469766973696f6e206279207a65726f000000000000604482015260640161048d565b6126d18284613103565b5f825f036127fd57505f6126d4565b5f6128088385613116565b9050826128158583613103565b146126d15760405162461bcd60e51b815260206004820152602160248201527f536166654d6174683a206d756c7469706c69636174696f6e206f766572666c6f6044820152607760f81b606482015260840161048d565b5f828211156128bd5760405162461bcd60e51b815260206004820152601e60248201527f536166654d6174683a207375627472616374696f6e206f766572666c6f770000604482015260640161048d565b6126d182846130dc565b828054828255905f5260205f2090810192821561291a579160200282015b8281111561291a57825182546001600160a01b0319166001600160a01b039091161782556020909201916001909101906128e5565b5061292692915061292a565b5090565b5b80821115612926575f815560010161292b565b6001600160a01b0381168114610814575f80fd5b5f60208284031215612962575f80fd5b81356126d18161293e565b5f6020828403121561297d575f80fd5b5035919050565b634e487b7160e01b5f52604160045260245ffd5b604051601f8201601f1916810167ffffffffffffffff811182821017156129c1576129c1612984565b604052919050565b5f80604083850312156129da575f80fd5b823567ffffffffffffffff808211156129f1575f80fd5b818501915085601f830112612a04575f80fd5b8135602082821115612a1857612a18612984565b8160051b9250612a29818401612998565b8281529284018101928181019089851115612a42575f80fd5b948201945b84861015612a6c5785359350612a5c8461293e565b8382529482019490820190612a47565b9997909101359750505050505050565b634e487b7160e01b5f52602160045260245ffd5b6001600160a01b038616815260a0810160038610612abc57634e487b7160e01b5f52602160045260245ffd5b8560208301528460408301528360608301528260808301529695505050505050565b602080825282518282018190525f9190848201906040850190845b81811015612b1e5783516001600160a01b031683529284019291840191600101612af9565b50909695505050505050565b5f8060208385031215612b3b575f80fd5b823567ffffffffffffffff80821115612b52575f80fd5b818501915085601f830112612b65575f80fd5b813581811115612b73575f80fd5b8660208260051b8501011115612b87575f80fd5b60209290920196919550909350505050565b80356110bf8161293e565b5f8083601f840112612bb4575f80fd5b50813567ffffffffffffffff811115612bcb575f80fd5b602083019150836020828501011115612be2575f80fd5b9250929050565b5f805f805f805f805f805f60c08c8e031215612c03575f80fd5b612c0c8c612b99565b9a5067ffffffffffffffff8060208e01351115612c27575f80fd5b612c378e60208f01358f01612ba4565b909b50995060408d0135811015612c4c575f80fd5b612c5c8e60408f01358f01612ba4565b909950975060608d0135811015612c71575f80fd5b612c818e60608f01358f01612ba4565b909750955060808d0135811015612c96575f80fd5b612ca68e60808f01358f01612ba4565b909550935060a08d0135811015612cbb575f80fd5b50612ccc8d60a08e01358e01612ba4565b81935080925050509295989b509295989b9093969950565b5f81518084525f5b81811015612d0857602081850181015186830182015201612cec565b505f602082860101526020601f19601f83011685010191505092915050565b60a081525f612d3960a0830188612ce4565b8281036020840152612d4b8188612ce4565b90508281036040840152612d5f8187612ce4565b90508281036060840152612d738186612ce4565b90508281036080840152612d878185612ce4565b98975050505050505050565b5f82601f830112612da2575f80fd5b813567ffffffffffffffff811115612dbc57612dbc612984565b612dcf601f8201601f1916602001612998565b818152846020838601011115612de3575f80fd5b816020850160208301375f918101602001919091529392505050565b5f805f805f60a08688031215612e13575f80fd5b853567ffffffffffffffff80821115612e2a575f80fd5b612e3689838a01612d93565b96506020880135915080821115612e4b575f80fd5b612e5789838a01612d93565b95506040880135915080821115612e6c575f80fd5b612e7889838a01612d93565b94506060880135915080821115612e8d575f80fd5b612e9989838a01612d93565b93506080880135915080821115612eae575f80fd5b50612ebb88828901612d93565b9150509295509295909350565b5f60208284031215612ed8575f80fd5b5051919050565b634e487b7160e01b5f52601160045260245ffd5b808201808211156126d4576126d4612edf565b634e487b7160e01b5f52603260045260245ffd5b5f60018201612f2b57612f2b612edf565b5060010190565b6020808252600c908201526b139bdd081a5b9a5d081e595d60a21b604082015260600190565b634e487b7160e01b5f52601260045260245ffd5b5f82612f7a57612f7a612f58565b500690565b600181811c90821680612f9357607f821691505b602082108103612fb157634e487b7160e01b5f52602260045260245ffd5b50919050565b5f60208284031215612fc7575f80fd5b815180151581146126d1575f80fd5b601f82111561301b575f81815260208120601f850160051c81016020861015612ffc5750805b601f850160051c820191505b8181101561251457828155600101613008565b505050565b815167ffffffffffffffff81111561303a5761303a612984565b61304e816130488454612f7f565b84612fd6565b602080601f831160018114613081575f841561306a5750858301515b5f19600386901b1c1916600185901b178555612514565b5f85815260208120601f198616915b828110156130af57888601518255948401946001909101908401613090565b50858210156130cc57878501515f19600388901b60f8161c191681555b5050505050600190811b01905550565b818103818111156126d4576126d4612edf565b634e487b7160e01b5f52603160045260245ffd5b5f8261311157613111612f58565b500490565b80820281158282048414176126d4576126d4612edf56fea2646970667358221220075bec8d6d70ac4c6d16ae4d9c65f0ed6c852703b727a2e4ca5c38e7f4ab33bc64736f6c63430008140033","linkReferences":{}},"methodIdentifiers":{"ProposalAddr()":"6233be5d","PunishContractAddr()":"1b5e358c","ValidatorContractAddr()":"3a061bd3","createOrEditValidator(address,string,string,string,string,string)":"a406fcb7","currentValidatorSet(uint256)":"6969a25c","distributeBlockReward()":"d6c0edad","getActiveValidators()":"9de70258","getTopValidators()":"afeea115","getValidatorDescription(address)":"a43569b3","getValidatorInfo(address)":"8a11d7c9","highestValidatorsSet(uint256)":"4b3d500b","initialize(address[])":"a224cee7","initialized()":"158ef93e","isActiveValidator(address)":"40550a1c","isTopValidator(address)":"98e3b626","removeValidator(address)":"40a141ff","removeValidatorIncoming(address)":"5dd09590","totalJailedHB()":"1303f7cf","tryActive(address)":"a0798862","tryRemoveValidator(address)":"a1ff4655","updateActiveValidatorSet(address[],uint256)":"6846992a","validateDescription(string,string,string,string,string)":"b6c88519","withdrawProfits(address)":"00362a77"},"id":4}