{"abi":[{"type":"function","name":"ProposalAddr","inputs":[],"outputs":[{"name":"","type":"address","internalType":"address"}],"stateMutability":"view"},{"type":"function","name":"PunishContractAddr","inputs":[],"outputs":[{"name":"","type":"address","internalType":"address"}],"stateMutability":"view"},{"type":"function","name":"ValidatorContractAddr","inputs":[],"outputs":[{"name":"","type":"address","internalType":"address"}],"stateMutability":"view"},{"type":"function","name":"createProposal","inputs":[{"name":"dst","type":"address","internalType":"address"},{"name":"flag","type":"bool","internalType":"bool"},{"name":"details","type":"string","internalType":"string"}],"outputs":[{"name":"","type":"bool","internalType":"bool"}],"stateMutability":"nonpayable"},{"type":"function","name":"createUpdateConfigProposal","inputs":[{"name":"cid","type":"uint256","internalType":"uint256"},{"name":"newValue","type":"uint256","internalType":"uint256"}],"outputs":[{"name":"","type":"bool","internalType":"bool"}],"stateMutability":"nonpayable"},{"type":"function","name":"decreaseRate","inputs":[],"outputs":[{"name":"","type":"uint256","internalType":"uint256"}],"stateMutability":"view"},{"type":"function","name":"increasePeriod","inputs":[],"outputs":[{"name":"","type":"uint256","internalType":"uint256"}],"stateMutability":"view"},{"type":"function","name":"initialize","inputs":[{"name":"vals","type":"address[]","internalType":"address[]"}],"outputs":[],"stateMutability":"nonpayable"},{"type":"function","name":"initialized","inputs":[],"outputs":[{"name":"","type":"bool","internalType":"bool"}],"stateMutability":"view"},{"type":"function","name":"pass","inputs":[{"name":"","type":"address","internalType":"address"}],"outputs":[{"name":"","type":"bool","internalType":"bool"}],"stateMutability":"view"},{"type":"function","name":"proposalLastingPeriod","inputs":[],"outputs":[{"name":"","type":"uint256","internalType":"uint256"}],"stateMutability":"view"},{"type":"function","name":"proposals","inputs":[{"name":"","type":"bytes32","internalType":"bytes32"}],"outputs":[{"name":"proposer","type":"address","internalType":"address"},{"name":"createTime","type":"uint256","internalType":"uint256"},{"name":"proposalType","type":"uint256","internalType":"uint256"},{"name":"dst","type":"address","internalType":"address"},{"name":"flag","type":"bool","internalType":"bool"},{"name":"details","type":"string","internalType":"string"},{"name":"cid","type":"uint256","internalType":"uint256"},{"name":"newValue","type":"uint256","internalType":"uint256"}],"stateMutability":"view"},{"type":"function","name":"punishThreshold","inputs":[],"outputs":[{"name":"","type":"uint256","internalType":"uint256"}],"stateMutability":"view"},{"type":"function","name":"receiverAddr","inputs":[],"outputs":[{"name":"","type":"address","internalType":"address"}],"stateMutability":"view"},{"type":"function","name":"removeThreshold","inputs":[],"outputs":[{"name":"","type":"uint256","internalType":"uint256"}],"stateMutability":"view"},{"type":"function","name":"results","inputs":[{"name":"","type":"bytes32","internalType":"bytes32"}],"outputs":[{"name":"agree","type":"uint16","internalType":"uint16"},{"name":"reject","type":"uint16","internalType":"uint16"},{"name":"resultExist","type":"bool","internalType":"bool"}],"stateMutability":"view"},{"type":"function","name":"setUnpassed","inputs":[{"name":"val","type":"address","internalType":"address"}],"outputs":[{"name":"","type":"bool","internalType":"bool"}],"stateMutability":"nonpayable"},{"type":"function","name":"voteProposal","inputs":[{"name":"id","type":"bytes32","internalType":"bytes32"},{"name":"auth","type":"bool","internalType":"bool"}],"outputs":[{"name":"","type":"bool","internalType":"bool"}],"stateMutability":"nonpayable"},{"type":"function","name":"votes","inputs":[{"name":"","type":"address","internalType":"address"},{"name":"","type":"bytes32","internalType":"bytes32"}],"outputs":[{"name":"voter","type":"address","internalType":"address"},{"name":"voteTime","type":"uint256","internalType":"uint256"},{"name":"auth","type":"bool","internalType":"bool"}],"stateMutability":"view"},{"type":"function","name":"withdrawProfitPeriod","inputs":[],"outputs":[{"name":"","type":"uint256","internalType":"uint256"}],"stateMutability":"view"},{"type":"event","name":"LogCreateConfigProposal","inputs":[{"name":"id","type":"bytes32","indexed":true,"internalType":"bytes32"},{"name":"proposer","type":"address","indexed":true,"internalType":"address"},{"name":"cid","type":"uint256","indexed":false,"internalType":"uint256"},{"name":"newValue","type":"uint256","indexed":false,"internalType":"uint256"},{"name":"time","type":"uint256","indexed":false,"internalType":"uint256"}],"anonymous":false},{"type":"event","name":"LogCreateProposal","inputs":[{"name":"id","type":"bytes32","indexed":true,"internalType":"bytes32"},{"name":"proposer","type":"address","indexed":true,"internalType":"address"},{"name":"dst","type":"address","indexed":true,"internalType":"address"},{"name":"flag","type":"bool","indexed":false,"internalType":"bool"},{"name":"time","type":"uint256","indexed":false,"internalType":"uint256"}],"anonymous":false},{"type":"event","name":"LogPassProposal","inputs":[{"name":"id","type":"bytes32","indexed":true,"internalType":"bytes32"},{"name":"time","type":"uint256","indexed":false,"internalType":"uint256"}],"anonymous":false},{"type":"event","name":"LogRejectProposal","inputs":[{"name":"id","type":"bytes32","indexed":true,"internalType":"bytes32"},{"name":"time","type":"uint256","indexed":false,"internalType":"uint256"}],"anonymous":false},{"type":"event","name":"LogSetUnpassed","inputs":[{"name":"val","type":"address","indexed":true,"internalType":"address"},{"name":"time","type":"uint256","indexed":false,"internalType":"uint256"}],"anonymous":false},{"type":"event","name":"LogVote","inputs":[{"name":"id","type":"bytes32","indexed":true,"internalType":"bytes32"},{"name":"voter","type":"address","indexed":true,"internalType":"address"},{"name":"auth","type":"bool","indexed":false,"internalType":"bool"},{"name":"time","type":"uint256","indexed":false,"internalType":"uint256"}],"anonymous":false}],"bytecode":{"object":"0x608060405234801561000f575f80fd5b506118138061001d5f395ff3fe608060405234801561000f575f80fd5b5060043610610127575f3560e01c806382c4b3b2116100a9578063cb1ea7251161006e578063cb1ea7251461030a578063d24806eb14610313578063d51cade814610326578063d63e6ce714610339578063e823c81414610342575f80fd5b806382c4b3b2146102a457806394522b6d146102c6578063a224cee7146102cf578063a3dcb4d2146102e4578063a4c4d922146102f7575f80fd5b806332ed5b12116100ef57806332ed5b12146102045780633a061bd31461022b57806344c1aa99146102345780634c6b25b11461023d5780636233be5d1461029b575f80fd5b8063158ef93e1461012b57806315ea27811461014c5780631b5e358c1461015f5780631db5ade8146101805780632897183d146101ed575b5f80fd5b5f546101379060ff1681565b60405190151581526020015b60405180910390f35b61013761015a366004611274565b61034b565b61016861f00181565b6040516001600160a01b039091168152602001610143565b6101c661018e366004611296565b600b60209081525f92835260408084209091529082529020805460018201546002909201546001600160a01b03909116919060ff1683565b604080516001600160a01b0390941684526020840192909252151590820152606001610143565b6101f660045481565b604051908152602001610143565b6102176102123660046112c0565b610404565b6040516101439897969594939291906112d7565b61016861f00081565b6101f660035481565b61027861024b3660046112c0565b600a6020525f908152604090205461ffff8082169162010000810490911690640100000000900460ff1683565b6040805161ffff9485168152939092166020840152151590820152606001610143565b61016861f00281565b6101376102b2366004611274565b60086020525f908152604090205460ff1681565b6101f660055481565b6102e26102dd36600461136f565b6104e0565b005b600754610168906001600160a01b031681565b6101376103053660046113eb565b610687565b6101f660025481565b610137610321366004611419565b610d3d565b610137610334366004611439565b610e9b565b6101f660065481565b6101f660015481565b5f3361f000146103a25760405162461bcd60e51b815260206004820152601860248201527f56616c696461746f727320636f6e7472616374206f6e6c79000000000000000060448201526064015b60405180910390fd5b6001600160a01b0382165f8181526008602052604090819020805460ff19169055517f4e0b191f7f5c32b1b5e3704b68874b1a3980147cae00be8ece271bfb5b92c07a906103f39042815260200190565b60405180910390a25060015b919050565b60096020525f9081526040902080546001820154600283015460038401546004850180546001600160a01b03958616969495939493831693600160a01b90930460ff16929190610453906114c4565b80601f016020809104026020016040519081016040528092919081815260200182805461047f906114c4565b80156104ca5780601f106104a1576101008083540402835291602001916104ca565b820191905f5260205f20905b8154815290600101906020018083116104ad57829003601f168201915b5050505050908060050154908060060154905088565b5f5460ff16156105285760405162461bcd60e51b8152602060048201526013602482015272105b1c9958591e481a5b9a5d1a585b1a5e9959606a1b6044820152606401610399565b600c80546001600160a01b03191661f0001790555f5b81811015610629575f838383818110610559576105596114fc565b905060200201602081019061056e9190611274565b6001600160a01b0316036105c45760405162461bcd60e51b815260206004820152601960248201527f496e76616c69642076616c696461746f722061646472657373000000000000006044820152606401610399565b600160085f8585858181106105db576105db6114fc565b90506020020160208101906105f09190611274565b6001600160a01b0316815260208101919091526040015f20805460ff19169115159190911790558061062181611524565b91505061053e565b505062093a806001908155601860028190556030600355600455620151806005555f805460ff19169091179055506301e13380600655600780546001600160a01b031916739014b4db9d30ced67db9d6b096f5dcdba28ce639179055565b600c54604051631015428760e21b81523360048201525f916001600160a01b0316906340550a1c90602401602060405180830381865afa1580156106cd573d5f803e3d5ffd5b505050506040513d601f19601f820116820180604052508101906106f1919061153c565b61072e5760405162461bcd60e51b815260206004820152600e60248201526d56616c696461746f72206f6e6c7960901b6044820152606401610399565b5f8381526009602052604081206001015490036107825760405162461bcd60e51b8152602060048201526012602482015271141c9bdc1bdcd85b081b9bdd08195e1a5cdd60721b6044820152606401610399565b335f908152600b60209081526040808320868452909152902060010154156107f85760405162461bcd60e51b815260206004820152602360248201527f596f752063616e277420766f746520666f7220612070726f706f73616c20747760448201526269636560e81b6064820152608401610399565b600180545f858152600960205260409020909101546108179190611557565b42106108585760405162461bcd60e51b815260206004820152601060248201526f141c9bdc1bdcd85b08195e1c1a5c995960821b6044820152606401610399565b335f818152600b60209081526040808320878452825291829020426001820181905581546001600160a01b031916851782556002909101805460ff191687151590811790915583519081529182015285917f6c59bda68cac318717c60c7c9635a78a0f0613f9887cc18a7157f5745a86d14e910160405180910390a3811561091d575f838152600a60205260409020546108f79061ffff16600161156a565b5f848152600a60205260409020805461ffff191661ffff9290921691909117905561096b565b5f838152600a60205260409020546109409062010000900461ffff16600161156a565b5f848152600a60205260409020805461ffff92909216620100000263ffff0000199092169190911790555b5f838152600a6020526040902054640100000000900460ff161561099157506001610d37565b600c54604080516313bce04b60e31b815290516002926001600160a01b031691639de70258916004808301925f9291908290030181865afa1580156109d8573d5f803e3d5ffd5b505050506040513d5f823e601f3d908101601f191682016040526109ff91908101906115ab565b51610a0a919061166b565b610a15906001611557565b5f848152600a602052604090205461ffff1610610c35575f838152600a60209081526040808320805464ff0000000019166401000000001790556009909152902060020154600103610bb8575f83815260096020526040902060030154600160a01b900460ff1615610b28575f83815260096020818152604080842060030180546001600160a01b03908116865260088452828620805460ff19166001179055600c5495899052939092529054905163503cc43160e11b8152908216600482015291169063a0798862906024016020604051808303815f875af1158015610afe573d5f803e3d5ffd5b505050506040513d601f19601f82011682018060405250810190610b22919061153c565b50610bf3565b5f83815260096020818152604080842060030180546001600160a01b03908116865260088452828620805460ff19169055600c5495899052939092529054905163a1ff465560e01b8152908216600482015291169063a1ff4655906024015f604051808303815f87803b158015610b9d575f80fd5b505af1158015610baf573d5f803e3d5ffd5b50505050610bf3565b5f8381526009602052604090206002908101549003610bf3575f8381526009602052604090206005810154600690910154610bf39190611190565b827f90d2e923947d9356c1c04391cb9e2e9c5d4ad6c165a849787b0c7569bbe99e2442604051610c2591815260200190565b60405180910390a2506001610d37565b600c54604080516313bce04b60e31b815290516002926001600160a01b031691639de70258916004808301925f9291908290030181865afa158015610c7c573d5f803e3d5ffd5b505050506040513d5f823e601f3d908101601f19168201604052610ca391908101906115ab565b51610cae919061166b565b610cb9906001611557565b5f848152600a602052604090205462010000900461ffff1610610d33575f838152600a602052604090819020805464ff0000000019166401000000001790555183907f36bdb56d707cdf53eadffe319a71ddf97736be67b8caab47b7720201a6b65ca090610d2a9042815260200190565b60405180910390a25b5060015b92915050565b6040516bffffffffffffffffffffffff193360601b16602082015260348101839052605481018290524260748201525f908190609401604051602081830303815290604052805190602001209050610d9361120b565b33815260c0810185905260e08101849052426020808301918252600260408085018281525f87815260099094529220845181546001600160a01b0319166001600160a01b039182161782559351600182015591519082015560608301516003820180546080860151929094166001600160a81b031990941693909317600160a01b911515919091021790915560a08201518291906004820190610e3690826116d8565b5060c0820151600582015560e090910151600690910155604080518681526020810186905242818301529051339184917f8bfc061277ae1778974ada10db7f9664ab1d67c455c025c025b438c52c69d1819181900360600190a3506001949350505050565b6001600160a01b0384165f9081526008602052604081205460ff16158015610ec05750835b80610eeb57506001600160a01b0385165f9081526008602052604090205460ff168015610eeb575083155b610f5f576040805162461bcd60e51b81526020600482015260248101919091527f43616e74227420616464206120616c726561647920657869737420647374206f60448201527f722043616e7422742072656d6f76652061206e6f7420706173736564206473746064820152608401610399565b5f338686868642604051602001610f7b96959493929190611794565b60408051601f1981840301815291905280516020909101209050610bb8831115610fda5760405162461bcd60e51b815260206004820152601060248201526f44657461696c7320746f6f206c6f6e6760801b6044820152606401610399565b5f81815260096020526040902060010154156110385760405162461bcd60e51b815260206004820152601760248201527f50726f706f73616c20616c7265616479206578697374730000000000000000006044820152606401610399565b61104061120b565b3381526001600160a01b03871660608201528515156080820152604080516020601f87018190048102820181019092528581529086908690819084018382808284375f92018290525060a0860194855242602080880191825260016040808a018281528b86526009909352909320885181546001600160a01b0319166001600160a01b03918216178255925193810193909355516002830155606087015160038301805460808a0151929093166001600160a81b031990931692909217600160a01b911515919091021790559351859493506004840192506111239150826116d8565b5060c0820151600582015560e0909101516006909101556040805187151581524260208201526001600160a01b03891691339185917f1af05d46b8c1ec021d82b7128cff40e91a1c2337deffc010df48eeddef8da56c910160405180910390a45060019695505050505050565b815f0361119d5760015550565b816001036111ab5760025550565b816002036111b95760035550565b816003036111c75760045550565b816004036111d55760055550565b816005036111e35760065550565b8160060361120757600780546001600160a01b0319166001600160a01b0383161790555b5050565b6040518061010001604052805f6001600160a01b031681526020015f81526020015f81526020015f6001600160a01b031681526020015f15158152602001606081526020015f81526020015f81525090565b6001600160a01b0381168114611271575f80fd5b50565b5f60208284031215611284575f80fd5b813561128f8161125d565b9392505050565b5f80604083850312156112a7575f80fd5b82356112b28161125d565b946020939093013593505050565b5f602082840312156112d0575f80fd5b5035919050565b6001600160a01b03898116825260208083018a9052604083018990529087166060830152851515608083015261010060a0830181905285519083018190525f918291905b8183101561133a5787830181015185840161012001529182019161131b565b505f61012082860181019190915260c085019690965260e08401949094525050601f909101601f191601019695505050505050565b5f8060208385031215611380575f80fd5b823567ffffffffffffffff80821115611397575f80fd5b818501915085601f8301126113aa575f80fd5b8135818111156113b8575f80fd5b8660208260051b85010111156113cc575f80fd5b60209290920196919550909350505050565b8015158114611271575f80fd5b5f80604083850312156113fc575f80fd5b82359150602083013561140e816113de565b809150509250929050565b5f806040838503121561142a575f80fd5b50508035926020909101359150565b5f805f806060858703121561144c575f80fd5b84356114578161125d565b93506020850135611467816113de565b9250604085013567ffffffffffffffff80821115611483575f80fd5b818701915087601f830112611496575f80fd5b8135818111156114a4575f80fd5b8860208285010111156114b5575f80fd5b95989497505060200194505050565b600181811c908216806114d857607f821691505b6020821081036114f657634e487b7160e01b5f52602260045260245ffd5b50919050565b634e487b7160e01b5f52603260045260245ffd5b634e487b7160e01b5f52601160045260245ffd5b5f6001820161153557611535611510565b5060010190565b5f6020828403121561154c575f80fd5b815161128f816113de565b80820180821115610d3757610d37611510565b61ffff81811683821601908082111561158557611585611510565b5092915050565b634e487b7160e01b5f52604160045260245ffd5b80516103ff8161125d565b5f60208083850312156115bc575f80fd5b825167ffffffffffffffff808211156115d3575f80fd5b818501915085601f8301126115e6575f80fd5b8151818111156115f8576115f861158c565b8060051b604051601f19603f8301168101818110858211171561161d5761161d61158c565b60405291825284820192508381018501918883111561163a575f80fd5b938501935b8285101561165f57611650856115a0565b8452938501939285019261163f565b98975050505050505050565b5f8261168557634e487b7160e01b5f52601260045260245ffd5b500490565b601f8211156116d3575f81815260208120601f850160051c810160208610156116b05750805b601f850160051c820191505b818110156116cf578281556001016116bc565b5050505b505050565b815167ffffffffffffffff8111156116f2576116f261158c565b6117068161170084546114c4565b8461168a565b602080601f831160018114611739575f84156117225750858301515b5f19600386901b1c1916600185901b1785556116cf565b5f85815260208120601f198616915b8281101561176757888601518255948401946001909101908401611748565b508582101561178457878501515f19600388901b60f8161c191681555b5050505050600190811b01905550565b5f6bffffffffffffffffffffffff19808960601b168352808860601b1660148401525085151560f81b60288301528385602984013750602992019182015260490194935050505056fea264697066735822122051088b432259a6d7e95c0cbe20bfc69897859bb186c45d999b9bb486b01adb5264736f6c63430008140033","linkReferences":{}},"methodIdentifiers":{"ProposalAddr()":"6233be5d","PunishContractAddr()":"1b5e358c","ValidatorContractAddr()":"3a061bd3","createProposal(address,bool,string)":"d51cade8","createUpdateConfigProposal(uint256,uint256)":"d24806eb","decreaseRate()":"2897183d","increasePeriod()":"d63e6ce7","initialize(address[])":"a224cee7","initialized()":"158ef93e","pass(address)":"82c4b3b2","proposalLastingPeriod()":"e823c814","proposals(bytes32)":"32ed5b12","punishThreshold()":"cb1ea725","receiverAddr()":"a3dcb4d2","removeThreshold()":"44c1aa99","results(bytes32)":"4c6b25b1","setUnpassed(address)":"15ea2781","voteProposal(bytes32,bool)":"a4c4d922","votes(address,bytes32)":"1db5ade8","withdrawProfitPeriod()":"94522b6d"},"id":2}