{"abi":[{"type":"function","name":"ProposalAddr","inputs":[],"outputs":[{"name":"","type":"address","internalType":"address"}],"stateMutability":"view"},{"type":"function","name":"PunishContractAddr","inputs":[],"outputs":[{"name":"","type":"address","internalType":"address"}],"stateMutability":"view"},{"type":"function","name":"ValidatorContractAddr","inputs":[],"outputs":[{"name":"","type":"address","internalType":"address"}],"stateMutability":"view"},{"type":"function","name":"cleanPunishRecord","inputs":[{"name":"val","type":"address","internalType":"address"}],"outputs":[{"name":"","type":"bool","internalType":"bool"}],"stateMutability":"nonpayable"},{"type":"function","name":"decreaseMissedBlocksCounter","inputs":[{"name":"epoch","type":"uint256","internalType":"uint256"}],"outputs":[],"stateMutability":"nonpayable"},{"type":"function","name":"getPunishRecord","inputs":[{"name":"val","type":"address","internalType":"address"}],"outputs":[{"name":"","type":"uint256","internalType":"uint256"}],"stateMutability":"view"},{"type":"function","name":"getPunishValidatorsLen","inputs":[],"outputs":[{"name":"","type":"uint256","internalType":"uint256"}],"stateMutability":"view"},{"type":"function","name":"initialize","inputs":[],"outputs":[],"stateMutability":"nonpayable"},{"type":"function","name":"initialized","inputs":[],"outputs":[{"name":"","type":"bool","internalType":"bool"}],"stateMutability":"view"},{"type":"function","name":"punish","inputs":[{"name":"val","type":"address","internalType":"address"}],"outputs":[],"stateMutability":"nonpayable"},{"type":"function","name":"punishValidators","inputs":[{"name":"","type":"uint256","internalType":"uint256"}],"outputs":[{"name":"","type":"address","internalType":"address"}],"stateMutability":"view"},{"type":"event","name":"LogDecreaseMissedBlocksCounter","inputs":[],"anonymous":false},{"type":"event","name":"LogPunishValidator","inputs":[{"name":"val","type":"address","indexed":true,"internalType":"address"},{"name":"time","type":"uint256","indexed":false,"internalType":"uint256"}],"anonymous":false}],"bytecode":{"object":"0x608060405234801561000f575f80fd5b50610dd48061001d5f395ff3fe608060405234801561000f575f80fd5b50600436106100a6575f3560e01c806363e1d4511161006e57806363e1d451146101345780638129fc1c14610147578063d93d2cb914610151578063e0d8ea5314610164578063ea7221a11461016c578063f62af26c1461017f575f80fd5b8063158ef93e146100aa5780631b5e358c146100cb57806332f3c17f146100ec5780633a061bd3146101225780636233be5d1461012b575b5f80fd5b5f546100b69060ff1681565b60405190151581526020015b60405180910390f35b6100d461f00181565b6040516001600160a01b0390911681526020016100c2565b6101146100fa366004610c76565b6001600160a01b03165f9081526002602052604090205490565b6040519081526020016100c2565b6100d461f00081565b6100d461f00281565b6100b6610142366004610c76565b610192565b61014f6103b5565b005b61014f61015f366004610ca3565b610429565b600354610114565b61014f61017a366004610c76565b610874565b6100d461018d366004610ca3565b610c4e565b5f805460ff166101bd5760405162461bcd60e51b81526004016101b490610cba565b60405180910390fd5b3361f0001461020e5760405162461bcd60e51b815260206004820152601860248201527f56616c696461746f727320636f6e7472616374206f6e6c79000000000000000060448201526064016101b4565b6001600160a01b0382165f9081526002602052604090205415610244576001600160a01b0382165f908152600260205260408120555b6001600160a01b0382165f908152600260208190526040909120015460ff168015610270575060035415155b156103ad5760035461028490600190610cf4565b6001600160a01b0383165f908152600260205260409020600101541461035057600380545f91906102b790600190610cf4565b815481106102c7576102c7610d0d565b5f9182526020808320909101546001600160a01b038681168452600290925260409092206001015460038054929093169350839291811061030a5761030a610d0d565b5f91825260208083209190910180546001600160a01b0319166001600160a01b039485161790558583168252600290526040808220600190810154949093168252902001555b600380548061036157610361610d21565b5f828152602080822083015f1990810180546001600160a01b03191690559092019092556001600160a01b038416825260029081905260408220600181019290925501805460ff191690555b506001919050565b5f5460ff16156103fd5760405162461bcd60e51b8152602060048201526013602482015272105b1c9958591e481a5b9a5d1a585b1a5e9959606a1b60448201526064016101b4565b5f8054600180546001600160a01b03191661f00217905562f000016001600160a81b0319909116179055565b3341146104655760405162461bcd60e51b815260206004820152600a6024820152694d696e6572206f6e6c7960b01b60448201526064016101b4565b435f9081526005602052604090205460ff16156104b85760405162461bcd60e51b8152602060048201526011602482015270105b1c9958591e48191958dc99585cd959607a1b60448201526064016101b4565b5f5460ff166104d95760405162461bcd60e51b81526004016101b490610cba565b806104e48143610d49565b156105245760405162461bcd60e51b815260206004820152601060248201526f426c6f636b2065706f6368206f6e6c7960801b60448201526064016101b4565b435f908152600560205260409020805460ff1916600117905560035415610870575f5b6003548110156108465760015f9054906101000a90046001600160a01b03166001600160a01b0316632897183d6040518163ffffffff1660e01b8152600401602060405180830381865afa1580156105a1573d5f803e3d5ffd5b505050506040513d601f19601f820116820180604052508101906105c59190610d5c565b60015f9054906101000a90046001600160a01b03166001600160a01b03166344c1aa996040518163ffffffff1660e01b8152600401602060405180830381865afa158015610615573d5f803e3d5ffd5b505050506040513d601f19601f820116820180604052508101906106399190610d5c565b6106439190610d73565b60025f6003848154811061065957610659610d0d565b5f9182526020808320909101546001600160a01b0316835282019290925260400190205411156107f85760015f9054906101000a90046001600160a01b03166001600160a01b0316632897183d6040518163ffffffff1660e01b8152600401602060405180830381865afa1580156106d3573d5f803e3d5ffd5b505050506040513d601f19601f820116820180604052508101906106f79190610d5c565b60015f9054906101000a90046001600160a01b03166001600160a01b03166344c1aa996040518163ffffffff1660e01b8152600401602060405180830381865afa158015610747573d5f803e3d5ffd5b505050506040513d601f19601f8201168201806040525081019061076b9190610d5c565b6107759190610d73565b60025f6003848154811061078b5761078b610d0d565b5f9182526020808320909101546001600160a01b031683528201929092526040019020546107b99190610cf4565b60025f600384815481106107cf576107cf610d0d565b5f9182526020808320909101546001600160a01b03168352820192909252604001902055610834565b5f60025f6003848154811061080f5761080f610d0d565b5f9182526020808320909101546001600160a01b031683528201929092526040019020555b8061083e81610d86565b915050610547565b506040517f181d51be54e8e8eaca6eae0eab32d4162099236bd519e7238d015d0870db4641905f90a15b5050565b3341146108b05760405162461bcd60e51b815260206004820152600a6024820152694d696e6572206f6e6c7960b01b60448201526064016101b4565b5f5460ff166108d15760405162461bcd60e51b81526004016101b490610cba565b435f9081526004602052604090205460ff16156109235760405162461bcd60e51b815260206004820152601060248201526f105b1c9958591e481c1d5b9a5cda195960821b60448201526064016101b4565b435f908152600460209081526040808320805460ff191660011790556001600160a01b0384168352600291829052909120015460ff166109cc57600380546001600160a01b0383165f818152600260208190526040822060018082018690558086019096557fc2575a0e9e593c00f959f8c92f12db2869c3395a3b0502d05e2516446f71f85b90940180546001600160a01b0319168417905591905201805460ff191690911790555b6001600160a01b0381165f9081526002602052604081208054916109ef83610d86565b919050555060015f9054906101000a90046001600160a01b03166001600160a01b03166344c1aa996040518163ffffffff1660e01b8152600401602060405180830381865afa158015610a44573d5f803e3d5ffd5b505050506040513d601f19601f82011682018060405250810190610a689190610d5c565b6001600160a01b0382165f90815260026020526040902054610a8a9190610d49565b5f03610b0c575f546040516340a141ff60e01b81526001600160a01b038381166004830152610100909204909116906340a141ff906024015f604051808303815f87803b158015610ad9575f80fd5b505af1158015610aeb573d5f803e3d5ffd5b5050506001600160a01b0382165f9081526002602052604081205550610c08565b60015f9054906101000a90046001600160a01b03166001600160a01b031663cb1ea7256040518163ffffffff1660e01b8152600401602060405180830381865afa158015610b5c573d5f803e3d5ffd5b505050506040513d601f19601f82011682018060405250810190610b809190610d5c565b6001600160a01b0382165f90815260026020526040902054610ba29190610d49565b5f03610c08575f546040516305dd095960e41b81526001600160a01b03838116600483015261010090920490911690635dd09590906024015f604051808303815f87803b158015610bf1575f80fd5b505af1158015610c03573d5f803e3d5ffd5b505050505b806001600160a01b03167f770e0cca42c35d00240986ce8d3ed438be04663c91dac6576b79537d7c180f1e42604051610c4391815260200190565b60405180910390a250565b60038181548110610c5d575f80fd5b5f918252602090912001546001600160a01b0316905081565b5f60208284031215610c86575f80fd5b81356001600160a01b0381168114610c9c575f80fd5b9392505050565b5f60208284031215610cb3575f80fd5b5035919050565b6020808252600c908201526b139bdd081a5b9a5d081e595d60a21b604082015260600190565b634e487b7160e01b5f52601160045260245ffd5b81810381811115610d0757610d07610ce0565b92915050565b634e487b7160e01b5f52603260045260245ffd5b634e487b7160e01b5f52603160045260245ffd5b634e487b7160e01b5f52601260045260245ffd5b5f82610d5757610d57610d35565b500690565b5f60208284031215610d6c575f80fd5b5051919050565b5f82610d8157610d81610d35565b500490565b5f60018201610d9757610d97610ce0565b506001019056fea2646970667358221220ab2c993542668771fecfbf9ce408a6f4d0f07e54d7ff02c7ae8d535890c7531e64736f6c63430008140033","linkReferences":{}},"methodIdentifiers":{"ProposalAddr()":"6233be5d","PunishContractAddr()":"1b5e358c","ValidatorContractAddr()":"3a061bd3","cleanPunishRecord(address)":"63e1d451","decreaseMissedBlocksCounter(uint256)":"d93d2cb9","getPunishRecord(address)":"32f3c17f","getPunishValidatorsLen()":"e0d8ea53","initialize()":"8129fc1c","initialized()":"158ef93e","punish(address)":"ea7221a1","punishValidators(uint256)":"f62af26c"},"id":3}