{"abi":[{"type":"constructor","inputs":[{"name":"vals_","type":"address[]","internalType":"address[]"},{"name":"proposal_","type":"address","internalType":"address"}],"stateMutability":"nonpayable"},{"type":"function","name":"getActiveValidators","inputs":[],"outputs":[{"name":"","type":"address[]","internalType":"address[]"}],"stateMutability":"view"},{"type":"function","name":"isActiveValidator","inputs":[{"name":"who","type":"address","internalType":"address"}],"outputs":[{"name":"","type":"bool","internalType":"bool"}],"stateMutability":"view"},{"type":"function","name":"setUnpassed","inputs":[{"name":"who","type":"address","internalType":"address"}],"outputs":[],"stateMutability":"nonpayable"},{"type":"function","name":"tryActive","inputs":[{"name":"","type":"address","internalType":"address"}],"outputs":[{"name":"","type":"bool","internalType":"bool"}],"stateMutability":"pure"},{"type":"function","name":"tryRemoveValidator","inputs":[{"name":"","type":"address","internalType":"address"}],"outputs":[{"name":"","type":"bool","internalType":"bool"}],"stateMutability":"pure"}],"bytecode":{"object":"0x608060405234801561000f575f80fd5b5060405161057738038061057783398101604081905261002e916100ee565b5f5b8251811015610098575f83828151811061004c5761004c6101bf565b60209081029190910181015182546001810184555f938452919092200180546001600160a01b0319166001600160a01b0390921691909117905580610090816101d3565b915050610030565b50600180546001600160a01b0319166001600160a01b0392909216919091179055506101f7565b634e487b7160e01b5f52604160045260245ffd5b80516001600160a01b03811681146100e9575f80fd5b919050565b5f80604083850312156100ff575f80fd5b82516001600160401b0380821115610115575f80fd5b818501915085601f830112610128575f80fd5b815160208282111561013c5761013c6100bf565b8160051b604051601f19603f83011681018181108682111715610161576101616100bf565b60405292835281830193508481018201928984111561017e575f80fd5b948201945b838610156101a357610194866100d3565b85529482019493820193610183565b96506101b290508782016100d3565b9450505050509250929050565b634e487b7160e01b5f52603260045260245ffd5b5f600182016101f057634e487b7160e01b5f52601160045260245ffd5b5060010190565b610373806102045f395ff3fe608060405234801561000f575f80fd5b5060043610610055575f3560e01c806315ea27811461005957806340550a1c1461006e5780639de7025814610096578063a0798862146100ab578063a1ff4655146100ab575b5f80fd5b61006c610067366004610259565b6100bf565b005b61008161007c366004610259565b610130565b60405190151581526020015b60405180910390f35b61009e610194565b60405161008d9190610286565b6100816100b9366004610259565b50600190565b6001546040516315ea278160e01b81526001600160a01b038381166004830152909116906315ea2781906024016020604051808303815f875af1158015610108573d5f803e3d5ffd5b505050506040513d601f19601f8201168201806040525081019061012c91906102d2565b5050565b5f805b5f5481101561018c57826001600160a01b03165f8281548110610158576101586102f1565b5f918252602090912001546001600160a01b03160361017a5750600192915050565b8061018481610305565b915050610133565b505f92915050565b5f80546060919067ffffffffffffffff8111156101b3576101b3610329565b6040519080825280602002602001820160405280156101dc578160200160208202803683370190505b5090505f5b5f54811015610253575f81815481106101fc576101fc6102f1565b905f5260205f20015f9054906101000a90046001600160a01b0316828281518110610229576102296102f1565b6001600160a01b03909216602092830291909101909101528061024b81610305565b9150506101e1565b50919050565b5f60208284031215610269575f80fd5b81356001600160a01b038116811461027f575f80fd5b9392505050565b602080825282518282018190525f9190848201906040850190845b818110156102c65783516001600160a01b0316835292840192918401916001016102a1565b50909695505050505050565b5f602082840312156102e2575f80fd5b8151801515811461027f575f80fd5b634e487b7160e01b5f52603260045260245ffd5b5f6001820161032257634e487b7160e01b5f52601160045260245ffd5b5060010190565b634e487b7160e01b5f52604160045260245ffdfea26469706673582212200eaf46f9d2bb5631d1de3a9de5e4d3d7e3bf76bfea38167eb7d8d5bed978215f64736f6c63430008140033","linkReferences":{}},"methodIdentifiers":{"getActiveValidators()":"9de70258","isActiveValidator(address)":"40550a1c","setUnpassed(address)":"15ea2781","tryActive(address)":"a0798862","tryRemoveValidator(address)":"a1ff4655"},"id":6}