{"abi":[{"type":"function","name":"ProposalAddr","inputs":[],"outputs":[{"name":"","type":"address","internalType":"address"}],"stateMutability":"view"},{"type":"function","name":"PunishContractAddr","inputs":[],"outputs":[{"name":"","type":"address","internalType":"address"}],"stateMutability":"view"},{"type":"function","name":"ValidatorContractAddr","inputs":[],"outputs":[{"name":"","type":"address","internalType":"address"}],"stateMutability":"view"},{"type":"function","name":"initialized","inputs":[],"outputs":[{"name":"","type":"bool","internalType":"bool"}],"stateMutability":"view"}],"bytecode":{"object":"0x608060405234801561000f575f80fd5b5060cd8061001c5f395ff3fe6080604052348015600e575f80fd5b50600436106044575f3560e01c8063158ef93e1460485780631b5e358c1460685780633a061bd31460875780636233be5d14608f575b5f80fd5b5f5460539060ff1681565b60405190151581526020015b60405180910390f35b607061f00181565b6040516001600160a01b039091168152602001605f565b607061f00081565b607061f0028156fea2646970667358221220972cad9271c2530ac7ca7814bc1f6b8bb62db0c1980e49bdcba76a34338bba2264736f6c63430008140033","linkReferences":{}},"methodIdentifiers":{"ProposalAddr()":"6233be5d","PunishContractAddr()":"1b5e358c","ValidatorContractAddr()":"3a061bd3","initialized()":"158ef93e"},"id":1}